{
  "contractName": "Trash",
  "abi": [
    {
      "inputs": [
        {
          "internalType": "address",
          "name": "",
          "type": "address"
        },
        {
          "internalType": "uint256",
          "name": "",
          "type": "uint256"
        }
      ],
      "name": "Data",
      "outputs": [
        {
          "internalType": "uint256",
          "name": "id",
          "type": "uint256"
        },
        {
          "internalType": "uint256",
          "name": "frequency",
          "type": "uint256"
        },
        {
          "internalType": "string",
          "name": "longitude",
          "type": "string"
        },
        {
          "internalType": "string",
          "name": "latitude",
          "type": "string"
        },
        {
          "internalType": "string",
          "name": "city",
          "type": "string"
        },
        {
          "internalType": "string",
          "name": "day",
          "type": "string"
        },
        {
          "internalType": "string",
          "name": "time",
          "type": "string"
        }
      ],
      "stateMutability": "view",
      "type": "function",
      "constant": true
    },
    {
      "inputs": [
        {
          "internalType": "string",
          "name": "longitude",
          "type": "string"
        },
        {
          "internalType": "string",
          "name": "latitude",
          "type": "string"
        },
        {
          "internalType": "string",
          "name": "city",
          "type": "string"
        }
      ],
      "name": "update_frequency",
      "outputs": [],
      "stateMutability": "nonpayable",
      "type": "function"
    },
    {
      "inputs": [
        {
          "internalType": "uint256",
          "name": "id",
          "type": "uint256"
        },
        {
          "internalType": "string",
          "name": "longitude",
          "type": "string"
        },
        {
          "internalType": "string",
          "name": "latitude",
          "type": "string"
        },
        {
          "internalType": "string",
          "name": "city",
          "type": "string"
        },
        {
          "internalType": "string",
          "name": "day",
          "type": "string"
        },
        {
          "internalType": "uint256",
          "name": "frequency",
          "type": "uint256"
        },
        {
          "internalType": "string",
          "name": "time",
          "type": "string"
        }
      ],
      "name": "Location_Add",
      "outputs": [],
      "stateMutability": "nonpayable",
      "type": "function"
    },
    {
      "inputs": [
        {
          "internalType": "uint256",
          "name": "index",
          "type": "uint256"
        }
      ],
      "name": "remove",
      "outputs": [],
      "stateMutability": "nonpayable",
      "type": "function"
    },
    {
      "inputs": [
        {
          "internalType": "uint256",
          "name": "id",
          "type": "uint256"
        },
        {
          "internalType": "string",
          "name": "long",
          "type": "string"
        },
        {
          "internalType": "string",
          "name": "lat",
          "type": "string"
        },
        {
          "internalType": "string",
          "name": "city",
          "type": "string"
        },
        {
          "internalType": "string",
          "name": "day",
          "type": "string"
        }
      ],
      "name": "Update_Resolve",
      "outputs": [],
      "stateMutability": "nonpayable",
      "type": "function"
    },
    {
      "inputs": [],
      "name": "Get_locations_Unresolved",
      "outputs": [
        {
          "components": [
            {
              "internalType": "uint256",
              "name": "id",
              "type": "uint256"
            },
            {
              "internalType": "uint256",
              "name": "frequency",
              "type": "uint256"
            },
            {
              "internalType": "string",
              "name": "longitude",
              "type": "string"
            },
            {
              "internalType": "string",
              "name": "latitude",
              "type": "string"
            },
            {
              "internalType": "string",
              "name": "city",
              "type": "string"
            },
            {
              "internalType": "string",
              "name": "day",
              "type": "string"
            },
            {
              "internalType": "string",
              "name": "time",
              "type": "string"
            }
          ],
          "internalType": "struct Trash.location_detail[]",
          "name": "",
          "type": "tuple[]"
        }
      ],
      "stateMutability": "view",
      "type": "function",
      "constant": true
    },
    {
      "inputs": [],
      "name": "Get_locations",
      "outputs": [
        {
          "components": [
            {
              "internalType": "uint256",
              "name": "id",
              "type": "uint256"
            },
            {
              "internalType": "uint256",
              "name": "frequency",
              "type": "uint256"
            },
            {
              "internalType": "string",
              "name": "longitude",
              "type": "string"
            },
            {
              "internalType": "string",
              "name": "latitude",
              "type": "string"
            },
            {
              "internalType": "string",
              "name": "city",
              "type": "string"
            },
            {
              "internalType": "string",
              "name": "day",
              "type": "string"
            },
            {
              "internalType": "string",
              "name": "time",
              "type": "string"
            }
          ],
          "internalType": "struct Trash.location_detail[]",
          "name": "",
          "type": "tuple[]"
        }
      ],
      "stateMutability": "view",
      "type": "function",
      "constant": true
    },
    {
      "inputs": [],
      "name": "Get_locations_resolved",
      "outputs": [
        {
          "components": [
            {
              "internalType": "uint256",
              "name": "id",
              "type": "uint256"
            },
            {
              "internalType": "uint256",
              "name": "frequency",
              "type": "uint256"
            },
            {
              "internalType": "string",
              "name": "longitude",
              "type": "string"
            },
            {
              "internalType": "string",
              "name": "latitude",
              "type": "string"
            },
            {
              "internalType": "string",
              "name": "city",
              "type": "string"
            },
            {
              "internalType": "string",
              "name": "day",
              "type": "string"
            },
            {
              "internalType": "string",
              "name": "time",
              "type": "string"
            }
          ],
          "internalType": "struct Trash.location_detail[]",
          "name": "",
          "type": "tuple[]"
        }
      ],
      "stateMutability": "view",
      "type": "function",
      "constant": true
    }
  ],
  "bytecode": "0x608060405234801561001057600080fd5b506125d4806100206000396000f3fe608060405234801561001057600080fd5b50600436106100885760003560e01c80638ee04f511161005b5780638ee04f51146101195780639be14bda14610137578063ce2932ae14610153578063f08683951461017157610088565b806306840bdf1461008d5780631974d6fe146100ab57806346269ee5146100c75780634cc82215146100fd575b600080fd5b61009561018d565b6040516100a2919061191f565b60405180910390f35b6100c560048036038101906100c09190611ab6565b6104da565b005b6100e160048036038101906100dc9190611bff565b610764565b6040516100f49796959493929190611c98565b60405180910390f35b61011760048036038101906101129190611d2a565b610a6b565b005b610121610c41565b60405161012e919061191f565b60405180910390f35b610151600480360381019061014c9190611d57565b610f8e565b005b61015b611141565b604051610168919061191f565b60405180910390f35b61018b60048036038101906101869190611e85565b61148e565b005b60606001805480602002602001604051908101604052809291908181526020016000905b828210156104d157838290600052602060002090600702016040518060e001604052908160008201548152602001600182015481526020016002820180546101f890611f5b565b80601f016020809104026020016040519081016040528092919081815260200182805461022490611f5b565b80156102715780601f1061024657610100808354040283529160200191610271565b820191906000526020600020905b81548152906001019060200180831161025457829003601f168201915b5050505050815260200160038201805461028a90611f5b565b80601f01602080910402602001604051908101604052809291908181526020018280546102b690611f5b565b80156103035780601f106102d857610100808354040283529160200191610303565b820191906000526020600020905b8154815290600101906020018083116102e657829003601f168201915b5050505050815260200160048201805461031c90611f5b565b80601f016020809104026020016040519081016040528092919081815260200182805461034890611f5b565b80156103955780601f1061036a57610100808354040283529160200191610395565b820191906000526020600020905b81548152906001019060200180831161037857829003601f168201915b505050505081526020016005820180546103ae90611f5b565b80601f01602080910402602001604051908101604052809291908181526020018280546103da90611f5b565b80156104275780601f106103fc57610100808354040283529160200191610427565b820191906000526020600020905b81548152906001019060200180831161040a57829003601f168201915b5050505050815260200160068201805461044090611f5b565b80601f016020809104026020016040519081016040528092919081815260200182805461046c90611f5b565b80156104b95780601f1061048e576101008083540402835291602001916104b9565b820191906000526020600020905b81548152906001019060200180831161049c57829003601f168201915b505050505081525050815260200190600101906101b1565b50505050905090565b60005b60018054905081101561075c57846040516020016104fb9190611fc8565b604051602081830303815290604052805190602001206001828154811061052557610524611fdf565b5b906000526020600020906007020160020160405160200161054691906120a6565b604051602081830303815290604052805190602001201480156105d85750836040516020016105759190611fc8565b604051602081830303815290604052805190602001206001828154811061059f5761059e611fdf565b5b90600052602060002090600702016003016040516020016105c091906120a6565b60405160208183030381529060405280519060200120145b80156106535750826040516020016105f09190611fc8565b604051602081830303815290604052805190602001206001828154811061061a57610619611fdf565b5b906000526020600020906007020160040160405160200161063b91906120a6565b60405160208183030381529060405280519060200120145b1561074957610660611662565b86816000018181525050858160400181905250848160600181905250838160800181905250828160a001819052506002819080600181540180825580915050600190039060005260206000209060070201600090919091909150600082015181600001556020820151816001015560408201518160020190816106e39190612254565b5060608201518160030190816106f99190612254565b50608082015181600401908161070f9190612254565b5060a08201518160050190816107259190612254565b5060c082015181600601908161073b9190612254565b50505061074782610a6b565b505b808061075490612355565b9150506104dd565b505050505050565b6000602052816000526040600020818154811061078057600080fd5b9060005260206000209060070201600091509150508060000154908060010154908060020180546107b090611f5b565b80601f01602080910402602001604051908101604052809291908181526020018280546107dc90611f5b565b80156108295780601f106107fe57610100808354040283529160200191610829565b820191906000526020600020905b81548152906001019060200180831161080c57829003601f168201915b50505050509080600301805461083e90611f5b565b80601f016020809104026020016040519081016040528092919081815260200182805461086a90611f5b565b80156108b75780601f1061088c576101008083540402835291602001916108b7565b820191906000526020600020905b81548152906001019060200180831161089a57829003601f168201915b5050505050908060040180546108cc90611f5b565b80601f01602080910402602001604051908101604052809291908181526020018280546108f890611f5b565b80156109455780601f1061091a57610100808354040283529160200191610945565b820191906000526020600020905b81548152906001019060200180831161092857829003601f168201915b50505050509080600501805461095a90611f5b565b80601f016020809104026020016040519081016040528092919081815260200182805461098690611f5b565b80156109d35780601f106109a8576101008083540402835291602001916109d3565b820191906000526020600020905b8154815290600101906020018083116109b657829003601f168201915b5050505050908060060180546109e890611f5b565b80601f0160208091040260200160405190810160405280929190818152602001828054610a1490611f5b565b8015610a615780601f10610a3657610100808354040283529160200191610a61565b820191906000526020600020905b815481529060010190602001808311610a4457829003601f168201915b5050505050905087565b6001805490508110610ab2576040517f08c379a0000000000000000000000000000000000000000000000000000000008152600401610aa9906123e9565b60405180910390fd5b60008190505b60018080549050610ac99190612409565b811015610bb25760018082610ade919061243d565b81548110610aef57610aee611fdf565b5b906000526020600020906007020160018281548110610b1157610b10611fdf565b5b9060005260206000209060070201600082015481600001556001820154816001015560028201816002019081610b479190612487565b5060038201816003019081610b5c9190612487565b5060048201816004019081610b719190612487565b5060058201816005019081610b869190612487565b5060068201816006019081610b9b9190612487565b509050508080610baa90612355565b915050610ab8565b506001805480610bc557610bc461256f565b5b60019003818190600052602060002090600702016000808201600090556001820160009055600282016000610bfa919061169f565b600382016000610c0a919061169f565b600482016000610c1a919061169f565b600582016000610c2a919061169f565b600682016000610c3a919061169f565b5050905550565b60606003805480602002602001604051908101604052809291908181526020016000905b82821015610f8557838290600052602060002090600702016040518060e00160405290816000820154815260200160018201548152602001600282018054610cac90611f5b565b80601f0160208091040260200160405190810160405280929190818152602001828054610cd890611f5b565b8015610d255780601f10610cfa57610100808354040283529160200191610d25565b820191906000526020600020905b815481529060010190602001808311610d0857829003601f168201915b50505050508152602001600382018054610d3e90611f5b565b80601f0160208091040260200160405190810160405280929190818152602001828054610d6a90611f5b565b8015610db75780601f10610d8c57610100808354040283529160200191610db7565b820191906000526020600020905b815481529060010190602001808311610d9a57829003601f168201915b50505050508152602001600482018054610dd090611f5b565b80601f0160208091040260200160405190810160405280929190818152602001828054610dfc90611f5b565b8015610e495780601f10610e1e57610100808354040283529160200191610e49565b820191906000526020600020905b815481529060010190602001808311610e2c57829003601f168201915b50505050508152602001600582018054610e6290611f5b565b80601f0160208091040260200160405190810160405280929190818152602001828054610e8e90611f5b565b8015610edb5780601f10610eb057610100808354040283529160200191610edb565b820191906000526020600020905b815481529060010190602001808311610ebe57829003601f168201915b50505050508152602001600682018054610ef490611f5b565b80601f0160208091040260200160405190810160405280929190818152602001828054610f2090611f5b565b8015610f6d5780601f10610f4257610100808354040283529160200191610f6d565b820191906000526020600020905b815481529060010190602001808311610f5057829003601f168201915b50505050508152505081526020019060010190610c65565b50505050905090565b610f96611662565b87816000018181525050868160400181905250858160600181905250848160800181905250838160a0018190525082816020018181525050818160c0018190525060018190806001815401808255809150506001900390600052602060002090600702016000909190919091506000820151816000015560208201518160010155604082015181600201908161102c9190612254565b5060608201518160030190816110429190612254565b5060808201518160040190816110589190612254565b5060a082015181600501908161106e9190612254565b5060c08201518160060190816110849190612254565b5050506003819080600181540180825580915050600190039060005260206000209060070201600090919091909150600082015181600001556020820151816001015560408201518160020190816110dc9190612254565b5060608201518160030190816110f29190612254565b5060808201518160040190816111089190612254565b5060a082015181600501908161111e9190612254565b5060c08201518160060190816111349190612254565b5050505050505050505050565b60606002805480602002602001604051908101604052809291908181526020016000905b8282101561148557838290600052602060002090600702016040518060e001604052908160008201548152602001600182015481526020016002820180546111ac90611f5b565b80601f01602080910402602001604051908101604052809291908181526020018280546111d890611f5b565b80156112255780601f106111fa57610100808354040283529160200191611225565b820191906000526020600020905b81548152906001019060200180831161120857829003601f168201915b5050505050815260200160038201805461123e90611f5b565b80601f016020809104026020016040519081016040528092919081815260200182805461126a90611f5b565b80156112b75780601f1061128c576101008083540402835291602001916112b7565b820191906000526020600020905b81548152906001019060200180831161129a57829003601f168201915b505050505081526020016004820180546112d090611f5b565b80601f01602080910402602001604051908101604052809291908181526020018280546112fc90611f5b565b80156113495780601f1061131e57610100808354040283529160200191611349565b820191906000526020600020905b81548152906001019060200180831161132c57829003601f168201915b5050505050815260200160058201805461136290611f5b565b80601f016020809104026020016040519081016040528092919081815260200182805461138e90611f5b565b80156113db5780601f106113b0576101008083540402835291602001916113db565b820191906000526020600020905b8154815290600101906020018083116113be57829003601f168201915b505050505081526020016006820180546113f490611f5b565b80601f016020809104026020016040519081016040528092919081815260200182805461142090611f5b565b801561146d5780601f106114425761010080835404028352916020019161146d565b820191906000526020600020905b81548152906001019060200180831161145057829003601f168201915b50505050508152505081526020019060010190611165565b50505050905090565b60005b60018054905081101561165c57836040516020016114af9190611fc8565b60405160208183030381529060405280519060200120600182815481106114d9576114d8611fdf565b5b90600052602060002090600702016002016040516020016114fa91906120a6565b6040516020818303038152906040528051906020012014801561158c5750826040516020016115299190611fc8565b604051602081830303815290604052805190602001206001828154811061155357611552611fdf565b5b906000526020600020906007020160030160405160200161157491906120a6565b60405160208183030381529060405280519060200120145b80156116075750816040516020016115a49190611fc8565b60405160208183030381529060405280519060200120600182815481106115ce576115cd611fdf565b5b90600052602060002090600702016004016040516020016115ef91906120a6565b60405160208183030381529060405280519060200120145b1561164957600180828154811061162157611620611fdf565b5b90600052602060002090600702016001016000828254611641919061243d565b925050819055505b808061165490612355565b915050611491565b50505050565b6040518060e00160405280600081526020016000815260200160608152602001606081526020016060815260200160608152602001606081525090565b5080546116ab90611f5b565b6000825580601f106116bd57506116dc565b601f0160209004906000526020600020908101906116db91906116df565b5b50565b5b808211156116f85760008160009055506001016116e0565b5090565b600081519050919050565b600082825260208201905092915050565b6000819050602082019050919050565b6000819050919050565b61173b81611728565b82525050565b600081519050919050565b600082825260208201905092915050565b60005b8381101561177b578082015181840152602081019050611760565b60008484015250505050565b6000601f19601f8301169050919050565b60006117a382611741565b6117ad818561174c565b93506117bd81856020860161175d565b6117c681611787565b840191505092915050565b600060e0830160008301516117e96000860182611732565b5060208301516117fc6020860182611732565b50604083015184820360408601526118148282611798565b9150506060830151848203606086015261182e8282611798565b915050608083015184820360808601526118488282611798565b91505060a083015184820360a08601526118628282611798565b91505060c083015184820360c086015261187c8282611798565b9150508091505092915050565b600061189583836117d1565b905092915050565b6000602082019050919050565b60006118b5826116fc565b6118bf8185611707565b9350836020820285016118d185611718565b8060005b8581101561190d57848403895281516118ee8582611889565b94506118f98361189d565b925060208a019950506001810190506118d5565b50829750879550505050505092915050565b6000602082019050818103600083015261193981846118aa565b905092915050565b6000604051905090565b600080fd5b600080fd5b61195e81611728565b811461196957600080fd5b50565b60008135905061197b81611955565b92915050565b600080fd5b600080fd5b7f4e487b7100000000000000000000000000000000000000000000000000000000600052604160045260246000fd5b6119c382611787565b810181811067ffffffffffffffff821117156119e2576119e161198b565b5b80604052505050565b60006119f5611941565b9050611a0182826119ba565b919050565b600067ffffffffffffffff821115611a2157611a2061198b565b5b611a2a82611787565b9050602081019050919050565b82818337600083830152505050565b6000611a59611a5484611a06565b6119eb565b905082815260208101848484011115611a7557611a74611986565b5b611a80848285611a37565b509392505050565b600082601f830112611a9d57611a9c611981565b5b8135611aad848260208601611a46565b91505092915050565b600080600080600060a08688031215611ad257611ad161194b565b5b6000611ae08882890161196c565b955050602086013567ffffffffffffffff811115611b0157611b00611950565b5b611b0d88828901611a88565b945050604086013567ffffffffffffffff811115611b2e57611b2d611950565b5b611b3a88828901611a88565b935050606086013567ffffffffffffffff811115611b5b57611b5a611950565b5b611b6788828901611a88565b925050608086013567ffffffffffffffff811115611b8857611b87611950565b5b611b9488828901611a88565b9150509295509295909350565b600073ffffffffffffffffffffffffffffffffffffffff82169050919050565b6000611bcc82611ba1565b9050919050565b611bdc81611bc1565b8114611be757600080fd5b50565b600081359050611bf981611bd3565b92915050565b60008060408385031215611c1657611c1561194b565b5b6000611c2485828601611bea565b9250506020611c358582860161196c565b9150509250929050565b611c4881611728565b82525050565b600082825260208201905092915050565b6000611c6a82611741565b611c748185611c4e565b9350611c8481856020860161175d565b611c8d81611787565b840191505092915050565b600060e082019050611cad600083018a611c3f565b611cba6020830189611c3f565b8181036040830152611ccc8188611c5f565b90508181036060830152611ce08187611c5f565b90508181036080830152611cf48186611c5f565b905081810360a0830152611d088185611c5f565b905081810360c0830152611d1c8184611c5f565b905098975050505050505050565b600060208284031215611d4057611d3f61194b565b5b6000611d4e8482850161196c565b91505092915050565b600080600080600080600060e0888a031215611d7657611d7561194b565b5b6000611d848a828b0161196c565b975050602088013567ffffffffffffffff811115611da557611da4611950565b5b611db18a828b01611a88565b965050604088013567ffffffffffffffff811115611dd257611dd1611950565b5b611dde8a828b01611a88565b955050606088013567ffffffffffffffff811115611dff57611dfe611950565b5b611e0b8a828b01611a88565b945050608088013567ffffffffffffffff811115611e2c57611e2b611950565b5b611e388a828b01611a88565b93505060a0611e498a828b0161196c565b92505060c088013567ffffffffffffffff811115611e6a57611e69611950565b5b611e768a828b01611a88565b91505092959891949750929550565b600080600060608486031215611e9e57611e9d61194b565b5b600084013567ffffffffffffffff811115611ebc57611ebb611950565b5b611ec886828701611a88565b935050602084013567ffffffffffffffff811115611ee957611ee8611950565b5b611ef586828701611a88565b925050604084013567ffffffffffffffff811115611f1657611f15611950565b5b611f2286828701611a88565b9150509250925092565b7f4e487b7100000000000000000000000000000000000000000000000000000000600052602260045260246000fd5b60006002820490506001821680611f7357607f821691505b602082108103611f8657611f85611f2c565b5b50919050565b600081905092915050565b6000611fa282611741565b611fac8185611f8c565b9350611fbc81856020860161175d565b80840191505092915050565b6000611fd48284611f97565b915081905092915050565b7f4e487b7100000000000000000000000000000000000000000000000000000000600052603260045260246000fd5b60008190508160005260206000209050919050565b6000815461203081611f5b565b61203a8186611f8c565b94506001821660008114612055576001811461206a5761209d565b60ff198316865281151582028601935061209d565b6120738561200e565b60005b8381101561209557815481890152600182019150602081019050612076565b838801955050505b50505092915050565b60006120b28284612023565b915081905092915050565b60006020601f8301049050919050565b600082821b905092915050565b60006008830261210a7fffffffffffffffffffffffffffffffffffffffffffffffffffffffffffffffff826120cd565b61211486836120cd565b95508019841693508086168417925050509392505050565b6000819050919050565b600061215161214c61214784611728565b61212c565b611728565b9050919050565b6000819050919050565b61216b83612136565b61217f61217782612158565b8484546120da565b825550505050565b600090565b612194612187565b61219f818484612162565b505050565b5b818110156121c3576121b860008261218c565b6001810190506121a5565b5050565b601f821115612208576121d98161200e565b6121e2846120bd565b810160208510156121f1578190505b6122056121fd856120bd565b8301826121a4565b50505b505050565b600082821c905092915050565b600061222b6000198460080261220d565b1980831691505092915050565b6000612244838361221a565b9150826002028217905092915050565b61225d82611741565b67ffffffffffffffff8111156122765761227561198b565b5b6122808254611f5b565b61228b8282856121c7565b600060209050601f8311600181146122be57600084156122ac578287015190505b6122b68582612238565b86555061231e565b601f1984166122cc8661200e565b60005b828110156122f4578489015182556001820191506020850194506020810190506122cf565b86831015612311578489015161230d601f89168261221a565b8355505b6001600288020188555050505b505050505050565b7f4e487b7100000000000000000000000000000000000000000000000000000000600052601160045260246000fd5b600061236082611728565b91507fffffffffffffffffffffffffffffffffffffffffffffffffffffffffffffffff820361239257612391612326565b5b600182019050919050565b7f496e646578206f7574206f6620426f756e640000000000000000000000000000600082015250565b60006123d3601283611c4e565b91506123de8261239d565b602082019050919050565b60006020820190508181036000830152612402816123c6565b9050919050565b600061241482611728565b915061241f83611728565b925082820390508181111561243757612436612326565b5b92915050565b600061244882611728565b915061245383611728565b925082820190508082111561246b5761246a612326565b5b92915050565b60008154905061248081611f5b565b9050919050565b81810361249557505061256d565b61249e82612471565b67ffffffffffffffff8111156124b7576124b661198b565b5b6124c18254611f5b565b6124cc8282856121c7565b6000601f8311600181146124fb57600084156124e9578287015490505b6124f38582612238565b865550612566565b601f1984166125098761200e565b96506125148661200e565b60005b8281101561253c57848901548255600182019150600185019450602081019050612517565b868310156125595784890154612555601f89168261221a565b8355505b6001600288020188555050505b5050505050505b565b7f4e487b7100000000000000000000000000000000000000000000000000000000600052603160045260246000fdfea2646970667358221220f6a94984475630a4af327a30e9d7f2e7691081e26784b02405c06c0e8d3a46cf64736f6c63430008110033",
  "immutableReferences": {},
  "source": "// SPDX-License-Identifier: MIT\r\npragma solidity >=0.4.22 <0.9.0;\r\n\r\ncontract Trash {\r\n    struct location_detail {\r\n        uint id;\r\n        uint frequency;\r\n        string longitude;\r\n        string latitude;\r\n        string city;\r\n        string day;\r\n        string time;\r\n    }\r\n    mapping(address => location_detail[]) public Data;\r\n    location_detail[] all_loc_Unresolved;\r\n    location_detail[] all_loc_resolved;\r\n    location_detail[] all_loc;\r\n\r\n    function update_frequency(string memory longitude,\r\n        string memory latitude,\r\n        string memory city) external {\r\n            for (uint i = 0; i < all_loc_Unresolved.length; i++) {\r\n            if (\r\n                keccak256(abi.encodePacked((all_loc_Unresolved[i].longitude))) ==\r\n                keccak256(abi.encodePacked((longitude))) &&\r\n                keccak256(abi.encodePacked((all_loc_Unresolved[i].latitude))) ==\r\n                keccak256(abi.encodePacked((latitude))) &&\r\n                keccak256(abi.encodePacked((all_loc_Unresolved[i].city))) ==\r\n                keccak256(abi.encodePacked((city)))\r\n            ) {\r\n                all_loc_Unresolved[i].frequency += 1;\r\n            }\r\n        }\r\n\r\n    }\r\n    function Location_Add(\r\n        uint id,\r\n        string memory longitude,\r\n        string memory latitude,\r\n        string memory city,\r\n        string memory day,\r\n        uint frequency,\r\n        string memory time\r\n    ) external {\r\n        location_detail memory d;\r\n        d.id = id;\r\n        d.longitude = longitude;\r\n        d.latitude = latitude;\r\n        d.city = city;\r\n        d.day = day;\r\n        d.frequency = frequency;\r\n        d.time = time;\r\n        // Data[msg.sender].push(d);\r\n        all_loc_Unresolved.push(d);\r\n        all_loc.push(d);\r\n    }\r\n\r\n    function remove(uint256 index) public {\r\n        require(index < all_loc_Unresolved.length, \"Index out of Bound\");\r\n        for (uint256 i = index; i < all_loc_Unresolved.length - 1; i++) {\r\n            all_loc_Unresolved[i] = all_loc_Unresolved[i + 1];\r\n        }\r\n        all_loc_Unresolved.pop();\r\n    }\r\n\r\n    function Update_Resolve(\r\n        uint id,\r\n        string memory long,\r\n        string memory lat,\r\n        string memory city,\r\n        string memory day\r\n    ) public {\r\n        for (uint i = 0; i < all_loc_Unresolved.length; i++) {\r\n            if (\r\n                keccak256(abi.encodePacked((all_loc_Unresolved[i].longitude))) ==\r\n                keccak256(abi.encodePacked((long))) &&\r\n                keccak256(abi.encodePacked((all_loc_Unresolved[i].latitude))) ==\r\n                keccak256(abi.encodePacked((lat))) &&\r\n                keccak256(abi.encodePacked((all_loc_Unresolved[i].city))) ==\r\n                keccak256(abi.encodePacked((city)))\r\n            ) {\r\n                location_detail memory d;\r\n                d.id = id;\r\n                d.longitude = long;\r\n                d.latitude = lat;\r\n                d.city = city;\r\n                d.day = day;\r\n                all_loc_resolved.push(d);\r\n                remove(i);\r\n            }\r\n        }\r\n    }\r\n\r\n    function Get_locations_Unresolved() public view returns (location_detail[] memory) {\r\n        return all_loc_Unresolved;\r\n    }\r\n\r\n     function Get_locations() public view returns (location_detail[] memory) {\r\n        return all_loc;\r\n    }\r\n\r\n    function Get_locations_resolved() public view returns (location_detail[] memory) {\r\n        return all_loc_resolved;\r\n    }\r\n}\r\n",
  "sourcePath": "C:\\Users\\ahmed\\OneDrive\\Documents\\FYP\\frontend\\contracts\\Trash.sol",
  "compiler": {
    "name": "solc",
    "version": "0.8.17+commit.8df45f5f.Emscripten.clang"
  },
  "schemaVersion": "3.4.10",
  "updatedAt": "2023-04-12T21:10:06.331Z",
  "networkType": "ethereum",
  "devdoc": {
    "kind": "dev",
    "methods": {},
    "version": 1
  },
  "userdoc": {
    "kind": "user",
    "methods": {},
    "version": 1
  }
}