{
  "contractName": "Trash",
  "abi": [
    {
      "inputs": [
        {
          "internalType": "address",
          "name": "",
          "type": "address"
        },
        {
          "internalType": "uint256",
          "name": "",
          "type": "uint256"
        }
      ],
      "name": "Data",
      "outputs": [
        {
          "internalType": "uint256",
          "name": "id",
          "type": "uint256"
        },
        {
          "internalType": "uint256",
          "name": "frequency",
          "type": "uint256"
        },
        {
          "internalType": "string",
          "name": "longitude",
          "type": "string"
        },
        {
          "internalType": "string",
          "name": "latitude",
          "type": "string"
        },
        {
          "internalType": "string",
          "name": "city",
          "type": "string"
        },
        {
          "internalType": "string",
          "name": "day",
          "type": "string"
        }
      ],
      "stateMutability": "view",
      "type": "function",
      "constant": true
    },
    {
      "inputs": [
        {
          "internalType": "uint256",
          "name": "id",
          "type": "uint256"
        },
        {
          "internalType": "string",
          "name": "longitude",
          "type": "string"
        },
        {
          "internalType": "string",
          "name": "latitude",
          "type": "string"
        },
        {
          "internalType": "string",
          "name": "city",
          "type": "string"
        },
        {
          "internalType": "string",
          "name": "day",
          "type": "string"
        },
        {
          "internalType": "uint256",
          "name": "frequency",
          "type": "uint256"
        }
      ],
      "name": "Location_Add",
      "outputs": [],
      "stateMutability": "nonpayable",
      "type": "function"
    },
    {
      "inputs": [
        {
          "internalType": "uint256",
          "name": "index",
          "type": "uint256"
        }
      ],
      "name": "remove",
      "outputs": [],
      "stateMutability": "nonpayable",
      "type": "function"
    },
    {
      "inputs": [
        {
          "internalType": "uint256",
          "name": "id",
          "type": "uint256"
        },
        {
          "internalType": "string",
          "name": "long",
          "type": "string"
        },
        {
          "internalType": "string",
          "name": "lat",
          "type": "string"
        },
        {
          "internalType": "string",
          "name": "city",
          "type": "string"
        },
        {
          "internalType": "string",
          "name": "day",
          "type": "string"
        }
      ],
      "name": "Update_Resolve",
      "outputs": [],
      "stateMutability": "nonpayable",
      "type": "function"
    },
    {
      "inputs": [],
      "name": "Get_locations_Unresolved",
      "outputs": [
        {
          "components": [
            {
              "internalType": "uint256",
              "name": "id",
              "type": "uint256"
            },
            {
              "internalType": "uint256",
              "name": "frequency",
              "type": "uint256"
            },
            {
              "internalType": "string",
              "name": "longitude",
              "type": "string"
            },
            {
              "internalType": "string",
              "name": "latitude",
              "type": "string"
            },
            {
              "internalType": "string",
              "name": "city",
              "type": "string"
            },
            {
              "internalType": "string",
              "name": "day",
              "type": "string"
            }
          ],
          "internalType": "struct Trash.location_detail[]",
          "name": "",
          "type": "tuple[]"
        }
      ],
      "stateMutability": "view",
      "type": "function",
      "constant": true
    },
    {
      "inputs": [],
      "name": "Get_locations",
      "outputs": [
        {
          "components": [
            {
              "internalType": "uint256",
              "name": "id",
              "type": "uint256"
            },
            {
              "internalType": "uint256",
              "name": "frequency",
              "type": "uint256"
            },
            {
              "internalType": "string",
              "name": "longitude",
              "type": "string"
            },
            {
              "internalType": "string",
              "name": "latitude",
              "type": "string"
            },
            {
              "internalType": "string",
              "name": "city",
              "type": "string"
            },
            {
              "internalType": "string",
              "name": "day",
              "type": "string"
            }
          ],
          "internalType": "struct Trash.location_detail[]",
          "name": "",
          "type": "tuple[]"
        }
      ],
      "stateMutability": "view",
      "type": "function",
      "constant": true
    },
    {
      "inputs": [],
      "name": "Get_locations_resolved",
      "outputs": [
        {
          "components": [
            {
              "internalType": "uint256",
              "name": "id",
              "type": "uint256"
            },
            {
              "internalType": "uint256",
              "name": "frequency",
              "type": "uint256"
            },
            {
              "internalType": "string",
              "name": "longitude",
              "type": "string"
            },
            {
              "internalType": "string",
              "name": "latitude",
              "type": "string"
            },
            {
              "internalType": "string",
              "name": "city",
              "type": "string"
            },
            {
              "internalType": "string",
              "name": "day",
              "type": "string"
            }
          ],
          "internalType": "struct Trash.location_detail[]",
          "name": "",
          "type": "tuple[]"
        }
      ],
      "stateMutability": "view",
      "type": "function",
      "constant": true
    }
  ],
  "bytecode": "0x608060405234801561001057600080fd5b50612045806100206000396000f3fe608060405234801561001057600080fd5b506004361061007d5760003560e01c80634cc822151161005b5780634cc82215146100f1578063698782f01461010d5780638ee04f5114610129578063ce2932ae146101475761007d565b806306840bdf146100825780631974d6fe146100a057806346269ee5146100bc575b600080fd5b61008a610165565b604051610097919061147d565b60405180910390f35b6100ba60048036038101906100b59190611614565b610420565b005b6100d660048036038101906100d1919061175d565b6106c4565b6040516100e8969594939291906117f6565b60405180910390f35b61010b60048036038101906101069190611873565b61093d565b005b610127600480360381019061012291906118a0565b610aee565b005b610131610c6b565b60405161013e919061147d565b60405180910390f35b61014f610f26565b60405161015c919061147d565b60405180910390f35b60606001805480602002602001604051908101604052809291908181526020016000905b8282101561041757838290600052602060002090600602016040518060c001604052908160008201548152602001600182015481526020016002820180546101d0906119cc565b80601f01602080910402602001604051908101604052809291908181526020018280546101fc906119cc565b80156102495780601f1061021e57610100808354040283529160200191610249565b820191906000526020600020905b81548152906001019060200180831161022c57829003601f168201915b50505050508152602001600382018054610262906119cc565b80601f016020809104026020016040519081016040528092919081815260200182805461028e906119cc565b80156102db5780601f106102b0576101008083540402835291602001916102db565b820191906000526020600020905b8154815290600101906020018083116102be57829003601f168201915b505050505081526020016004820180546102f4906119cc565b80601f0160208091040260200160405190810160405280929190818152602001828054610320906119cc565b801561036d5780601f106103425761010080835404028352916020019161036d565b820191906000526020600020905b81548152906001019060200180831161035057829003601f168201915b50505050508152602001600582018054610386906119cc565b80601f01602080910402602001604051908101604052809291908181526020018280546103b2906119cc565b80156103ff5780601f106103d4576101008083540402835291602001916103ff565b820191906000526020600020905b8154815290600101906020018083116103e257829003601f168201915b50505050508152505081526020019060010190610189565b50505050905090565b60005b6001805490508110156106bc578560018281548110610445576104446119fd565b5b9060005260206000209060060201600001541480156104d35750846040516020016104709190611a68565b604051602081830303815290604052805190602001206001828154811061049a576104996119fd565b5b90600052602060002090600602016002016040516020016104bb9190611b17565b60405160208183030381529060405280519060200120145b801561054e5750836040516020016104eb9190611a68565b6040516020818303038152906040528051906020012060018281548110610515576105146119fd565b5b90600052602060002090600602016003016040516020016105369190611b17565b60405160208183030381529060405280519060200120145b80156105c95750826040516020016105669190611a68565b60405160208183030381529060405280519060200120600182815481106105905761058f6119fd565b5b90600052602060002090600602016004016040516020016105b19190611b17565b60405160208183030381529060405280519060200120145b156106a9576105d66111e1565b86816000018181525050858160400181905250848160600181905250838160800181905250828160a001819052506002819080600181540180825580915050600190039060005260206000209060060201600090919091909150600082015181600001556020820151816001015560408201518160020190816106599190611cc5565b50606082015181600301908161066f9190611cc5565b5060808201518160040190816106859190611cc5565b5060a082015181600501908161069b9190611cc5565b5050506106a78261093d565b505b80806106b490611dc6565b915050610423565b505050505050565b600060205281600052604060002081815481106106e057600080fd5b906000526020600020906006020160009150915050806000015490806001015490806002018054610710906119cc565b80601f016020809104026020016040519081016040528092919081815260200182805461073c906119cc565b80156107895780601f1061075e57610100808354040283529160200191610789565b820191906000526020600020905b81548152906001019060200180831161076c57829003601f168201915b50505050509080600301805461079e906119cc565b80601f01602080910402602001604051908101604052809291908181526020018280546107ca906119cc565b80156108175780601f106107ec57610100808354040283529160200191610817565b820191906000526020600020905b8154815290600101906020018083116107fa57829003601f168201915b50505050509080600401805461082c906119cc565b80601f0160208091040260200160405190810160405280929190818152602001828054610858906119cc565b80156108a55780601f1061087a576101008083540402835291602001916108a5565b820191906000526020600020905b81548152906001019060200180831161088857829003601f168201915b5050505050908060050180546108ba906119cc565b80601f01602080910402602001604051908101604052809291908181526020018280546108e6906119cc565b80156109335780601f1061090857610100808354040283529160200191610933565b820191906000526020600020905b81548152906001019060200180831161091657829003601f168201915b5050505050905086565b6001805490508110610984576040517f08c379a000000000000000000000000000000000000000000000000000000000815260040161097b90611e5a565b60405180910390fd5b60008190505b6001808054905061099b9190611e7a565b811015610a6f57600180826109b09190611eae565b815481106109c1576109c06119fd565b5b9060005260206000209060060201600182815481106109e3576109e26119fd565b5b9060005260206000209060060201600082015481600001556001820154816001015560028201816002019081610a199190611ef8565b5060038201816003019081610a2e9190611ef8565b5060048201816004019081610a439190611ef8565b5060058201816005019081610a589190611ef8565b509050508080610a6790611dc6565b91505061098a565b506001805480610a8257610a81611fe0565b5b60019003818190600052602060002090600602016000808201600090556001820160009055600282016000610ab79190611217565b600382016000610ac79190611217565b600482016000610ad79190611217565b600582016000610ae79190611217565b5050905550565b610af66111e1565b86816000018181525050858160400181905250848160600181905250838160800181905250828160a0018190525081816020018181525050600181908060018154018082558091505060019003906000526020600020906006020160009091909190915060008201518160000155602082015181600101556040820151816002019081610b839190611cc5565b506060820151816003019081610b999190611cc5565b506080820151816004019081610baf9190611cc5565b5060a0820151816005019081610bc59190611cc5565b505050600381908060018154018082558091505060019003906000526020600020906006020160009091909190915060008201518160000155602082015181600101556040820151816002019081610c1d9190611cc5565b506060820151816003019081610c339190611cc5565b506080820151816004019081610c499190611cc5565b5060a0820151816005019081610c5f9190611cc5565b50505050505050505050565b60606003805480602002602001604051908101604052809291908181526020016000905b82821015610f1d57838290600052602060002090600602016040518060c00160405290816000820154815260200160018201548152602001600282018054610cd6906119cc565b80601f0160208091040260200160405190810160405280929190818152602001828054610d02906119cc565b8015610d4f5780601f10610d2457610100808354040283529160200191610d4f565b820191906000526020600020905b815481529060010190602001808311610d3257829003601f168201915b50505050508152602001600382018054610d68906119cc565b80601f0160208091040260200160405190810160405280929190818152602001828054610d94906119cc565b8015610de15780601f10610db657610100808354040283529160200191610de1565b820191906000526020600020905b815481529060010190602001808311610dc457829003601f168201915b50505050508152602001600482018054610dfa906119cc565b80601f0160208091040260200160405190810160405280929190818152602001828054610e26906119cc565b8015610e735780601f10610e4857610100808354040283529160200191610e73565b820191906000526020600020905b815481529060010190602001808311610e5657829003601f168201915b50505050508152602001600582018054610e8c906119cc565b80601f0160208091040260200160405190810160405280929190818152602001828054610eb8906119cc565b8015610f055780601f10610eda57610100808354040283529160200191610f05565b820191906000526020600020905b815481529060010190602001808311610ee857829003601f168201915b50505050508152505081526020019060010190610c8f565b50505050905090565b60606002805480602002602001604051908101604052809291908181526020016000905b828210156111d857838290600052602060002090600602016040518060c00160405290816000820154815260200160018201548152602001600282018054610f91906119cc565b80601f0160208091040260200160405190810160405280929190818152602001828054610fbd906119cc565b801561100a5780601f10610fdf5761010080835404028352916020019161100a565b820191906000526020600020905b815481529060010190602001808311610fed57829003601f168201915b50505050508152602001600382018054611023906119cc565b80601f016020809104026020016040519081016040528092919081815260200182805461104f906119cc565b801561109c5780601f106110715761010080835404028352916020019161109c565b820191906000526020600020905b81548152906001019060200180831161107f57829003601f168201915b505050505081526020016004820180546110b5906119cc565b80601f01602080910402602001604051908101604052809291908181526020018280546110e1906119cc565b801561112e5780601f106111035761010080835404028352916020019161112e565b820191906000526020600020905b81548152906001019060200180831161111157829003601f168201915b50505050508152602001600582018054611147906119cc565b80601f0160208091040260200160405190810160405280929190818152602001828054611173906119cc565b80156111c05780601f10611195576101008083540402835291602001916111c0565b820191906000526020600020905b8154815290600101906020018083116111a357829003601f168201915b50505050508152505081526020019060010190610f4a565b50505050905090565b6040518060c001604052806000815260200160008152602001606081526020016060815260200160608152602001606081525090565b508054611223906119cc565b6000825580601f106112355750611254565b601f0160209004906000526020600020908101906112539190611257565b5b50565b5b80821115611270576000816000905550600101611258565b5090565b600081519050919050565b600082825260208201905092915050565b6000819050602082019050919050565b6000819050919050565b6112b3816112a0565b82525050565b600081519050919050565b600082825260208201905092915050565b60005b838110156112f35780820151818401526020810190506112d8565b60008484015250505050565b6000601f19601f8301169050919050565b600061131b826112b9565b61132581856112c4565b93506113358185602086016112d5565b61133e816112ff565b840191505092915050565b600060c08301600083015161136160008601826112aa565b50602083015161137460208601826112aa565b506040830151848203604086015261138c8282611310565b915050606083015184820360608601526113a68282611310565b915050608083015184820360808601526113c08282611310565b91505060a083015184820360a08601526113da8282611310565b9150508091505092915050565b60006113f38383611349565b905092915050565b6000602082019050919050565b600061141382611274565b61141d818561127f565b93508360208202850161142f85611290565b8060005b8581101561146b578484038952815161144c85826113e7565b9450611457836113fb565b925060208a01995050600181019050611433565b50829750879550505050505092915050565b600060208201905081810360008301526114978184611408565b905092915050565b6000604051905090565b600080fd5b600080fd5b6114bc816112a0565b81146114c757600080fd5b50565b6000813590506114d9816114b3565b92915050565b600080fd5b600080fd5b7f4e487b7100000000000000000000000000000000000000000000000000000000600052604160045260246000fd5b611521826112ff565b810181811067ffffffffffffffff821117156115405761153f6114e9565b5b80604052505050565b600061155361149f565b905061155f8282611518565b919050565b600067ffffffffffffffff82111561157f5761157e6114e9565b5b611588826112ff565b9050602081019050919050565b82818337600083830152505050565b60006115b76115b284611564565b611549565b9050828152602081018484840111156115d3576115d26114e4565b5b6115de848285611595565b509392505050565b600082601f8301126115fb576115fa6114df565b5b813561160b8482602086016115a4565b91505092915050565b600080600080600060a086880312156116305761162f6114a9565b5b600061163e888289016114ca565b955050602086013567ffffffffffffffff81111561165f5761165e6114ae565b5b61166b888289016115e6565b945050604086013567ffffffffffffffff81111561168c5761168b6114ae565b5b611698888289016115e6565b935050606086013567ffffffffffffffff8111156116b9576116b86114ae565b5b6116c5888289016115e6565b925050608086013567ffffffffffffffff8111156116e6576116e56114ae565b5b6116f2888289016115e6565b9150509295509295909350565b600073ffffffffffffffffffffffffffffffffffffffff82169050919050565b600061172a826116ff565b9050919050565b61173a8161171f565b811461174557600080fd5b50565b60008135905061175781611731565b92915050565b60008060408385031215611774576117736114a9565b5b600061178285828601611748565b9250506020611793858286016114ca565b9150509250929050565b6117a6816112a0565b82525050565b600082825260208201905092915050565b60006117c8826112b9565b6117d281856117ac565b93506117e28185602086016112d5565b6117eb816112ff565b840191505092915050565b600060c08201905061180b600083018961179d565b611818602083018861179d565b818103604083015261182a81876117bd565b9050818103606083015261183e81866117bd565b9050818103608083015261185281856117bd565b905081810360a083015261186681846117bd565b9050979650505050505050565b600060208284031215611889576118886114a9565b5b6000611897848285016114ca565b91505092915050565b60008060008060008060c087890312156118bd576118bc6114a9565b5b60006118cb89828a016114ca565b965050602087013567ffffffffffffffff8111156118ec576118eb6114ae565b5b6118f889828a016115e6565b955050604087013567ffffffffffffffff811115611919576119186114ae565b5b61192589828a016115e6565b945050606087013567ffffffffffffffff811115611946576119456114ae565b5b61195289828a016115e6565b935050608087013567ffffffffffffffff811115611973576119726114ae565b5b61197f89828a016115e6565b92505060a061199089828a016114ca565b9150509295509295509295565b7f4e487b7100000000000000000000000000000000000000000000000000000000600052602260045260246000fd5b600060028204905060018216806119e457607f821691505b6020821081036119f7576119f661199d565b5b50919050565b7f4e487b7100000000000000000000000000000000000000000000000000000000600052603260045260246000fd5b600081905092915050565b6000611a42826112b9565b611a4c8185611a2c565b9350611a5c8185602086016112d5565b80840191505092915050565b6000611a748284611a37565b915081905092915050565b60008190508160005260206000209050919050565b60008154611aa1816119cc565b611aab8186611a2c565b94506001821660008114611ac65760018114611adb57611b0e565b60ff1983168652811515820286019350611b0e565b611ae485611a7f565b60005b83811015611b0657815481890152600182019150602081019050611ae7565b838801955050505b50505092915050565b6000611b238284611a94565b915081905092915050565b60006020601f8301049050919050565b600082821b905092915050565b600060088302611b7b7fffffffffffffffffffffffffffffffffffffffffffffffffffffffffffffffff82611b3e565b611b858683611b3e565b95508019841693508086168417925050509392505050565b6000819050919050565b6000611bc2611bbd611bb8846112a0565b611b9d565b6112a0565b9050919050565b6000819050919050565b611bdc83611ba7565b611bf0611be882611bc9565b848454611b4b565b825550505050565b600090565b611c05611bf8565b611c10818484611bd3565b505050565b5b81811015611c3457611c29600082611bfd565b600181019050611c16565b5050565b601f821115611c7957611c4a81611a7f565b611c5384611b2e565b81016020851015611c62578190505b611c76611c6e85611b2e565b830182611c15565b50505b505050565b600082821c905092915050565b6000611c9c60001984600802611c7e565b1980831691505092915050565b6000611cb58383611c8b565b9150826002028217905092915050565b611cce826112b9565b67ffffffffffffffff811115611ce757611ce66114e9565b5b611cf182546119cc565b611cfc828285611c38565b600060209050601f831160018114611d2f5760008415611d1d578287015190505b611d278582611ca9565b865550611d8f565b601f198416611d3d86611a7f565b60005b82811015611d6557848901518255600182019150602085019450602081019050611d40565b86831015611d825784890151611d7e601f891682611c8b565b8355505b6001600288020188555050505b505050505050565b7f4e487b7100000000000000000000000000000000000000000000000000000000600052601160045260246000fd5b6000611dd1826112a0565b91507fffffffffffffffffffffffffffffffffffffffffffffffffffffffffffffffff8203611e0357611e02611d97565b5b600182019050919050565b7f496e646578206f7574206f6620426f756e640000000000000000000000000000600082015250565b6000611e446012836117ac565b9150611e4f82611e0e565b602082019050919050565b60006020820190508181036000830152611e7381611e37565b9050919050565b6000611e85826112a0565b9150611e90836112a0565b9250828203905081811115611ea857611ea7611d97565b5b92915050565b6000611eb9826112a0565b9150611ec4836112a0565b9250828201905080821115611edc57611edb611d97565b5b92915050565b600081549050611ef1816119cc565b9050919050565b818103611f06575050611fde565b611f0f82611ee2565b67ffffffffffffffff811115611f2857611f276114e9565b5b611f3282546119cc565b611f3d828285611c38565b6000601f831160018114611f6c5760008415611f5a578287015490505b611f648582611ca9565b865550611fd7565b601f198416611f7a87611a7f565b9650611f8586611a7f565b60005b82811015611fad57848901548255600182019150600185019450602081019050611f88565b86831015611fca5784890154611fc6601f891682611c8b565b8355505b6001600288020188555050505b5050505050505b565b7f4e487b7100000000000000000000000000000000000000000000000000000000600052603160045260246000fdfea2646970667358221220fd853a50d09534717a63c69a6d80a8f836d07fb7e5c8a94dd829c383b83315a964736f6c63430008110033",
  "immutableReferences": {},
  "source": "// SPDX-License-Identifier: MIT\r\npragma solidity >=0.4.22 <0.9.0;\r\n\r\ncontract Trash {\r\n    struct location_detail {\r\n        uint id;\r\n        uint frequency;\r\n        string longitude;\r\n        string latitude;\r\n        string city;\r\n        string day;\r\n    }\r\n    mapping(address => location_detail[]) public Data;\r\n    location_detail[] all_loc_Unresolved;\r\n    location_detail[] all_loc_resolved;\r\n    location_detail[] all_loc;\r\n\r\n\r\n    function Location_Add(\r\n        uint id,\r\n        string memory longitude,\r\n        string memory latitude,\r\n        string memory city,\r\n        string memory day,\r\n        uint frequency\r\n    ) external {\r\n        location_detail memory d;\r\n        d.id = id;\r\n        d.longitude = longitude;\r\n        d.latitude = latitude;\r\n        d.city = city;\r\n        d.day = day;\r\n        d.frequency = frequency;\r\n        // Data[msg.sender].push(d);\r\n        all_loc_Unresolved.push(d);\r\n        all_loc.push(d);\r\n    }\r\n\r\n    function remove(uint256 index) public {\r\n        require(index < all_loc_Unresolved.length, \"Index out of Bound\");\r\n        for (uint256 i = index; i < all_loc_Unresolved.length - 1; i++) {\r\n            all_loc_Unresolved[i] = all_loc_Unresolved[i + 1];\r\n        }\r\n        all_loc_Unresolved.pop();\r\n    }\r\n\r\n    function Update_Resolve(\r\n        uint id,\r\n        string memory long,\r\n        string memory lat,\r\n        string memory city,\r\n        string memory day\r\n    ) public {\r\n        for (uint i = 0; i < all_loc_Unresolved.length; i++) {\r\n            if (\r\n                all_loc_Unresolved[i].id ==  id && \r\n                keccak256(abi.encodePacked((all_loc_Unresolved[i].longitude))) ==\r\n                keccak256(abi.encodePacked((long))) &&\r\n                keccak256(abi.encodePacked((all_loc_Unresolved[i].latitude))) ==\r\n                keccak256(abi.encodePacked((lat))) &&\r\n                keccak256(abi.encodePacked((all_loc_Unresolved[i].city))) ==\r\n                keccak256(abi.encodePacked((city)))\r\n            ) {\r\n                location_detail memory d;\r\n                d.id = id;\r\n                d.longitude = long;\r\n                d.latitude = lat;\r\n                d.city = city;\r\n                d.day = day;\r\n                all_loc_resolved.push(d);\r\n                remove(i);\r\n            }\r\n        }\r\n    }\r\n\r\n    function Get_locations_Unresolved() public view returns (location_detail[] memory) {\r\n        return all_loc_Unresolved;\r\n    }\r\n\r\n     function Get_locations() public view returns (location_detail[] memory) {\r\n        return all_loc;\r\n    }\r\n\r\n    function Get_locations_resolved() public view returns (location_detail[] memory) {\r\n        return all_loc_resolved;\r\n    }\r\n}\r\n",
  "sourcePath": "C:\\Users\\ahmed\\OneDrive\\Documents\\FYP\\frontend\\contracts\\Trash.sol",
  "compiler": {
    "name": "solc",
    "version": "0.8.17+commit.8df45f5f.Emscripten.clang"
  },
  "schemaVersion": "3.4.10",
  "updatedAt": "2023-04-11T15:52:50.617Z",
  "networkType": "ethereum",
  "devdoc": {
    "kind": "dev",
    "methods": {},
    "version": 1
  },
  "userdoc": {
    "kind": "user",
    "methods": {},
    "version": 1
  }
}