{
  "contractName": "Trash",
  "abi": [
    {
      "inputs": [
        {
          "internalType": "address",
          "name": "",
          "type": "address"
        },
        {
          "internalType": "uint256",
          "name": "",
          "type": "uint256"
        }
      ],
      "name": "Data",
      "outputs": [
        {
          "internalType": "uint256",
          "name": "id",
          "type": "uint256"
        },
        {
          "internalType": "string",
          "name": "longitude",
          "type": "string"
        },
        {
          "internalType": "string",
          "name": "latitude",
          "type": "string"
        },
        {
          "internalType": "string",
          "name": "city",
          "type": "string"
        },
        {
          "internalType": "string",
          "name": "day",
          "type": "string"
        }
      ],
      "stateMutability": "view",
      "type": "function",
      "constant": true
    },
    {
      "inputs": [
        {
          "internalType": "uint256",
          "name": "id",
          "type": "uint256"
        },
        {
          "internalType": "string",
          "name": "longitude",
          "type": "string"
        },
        {
          "internalType": "string",
          "name": "latitude",
          "type": "string"
        },
        {
          "internalType": "string",
          "name": "city",
          "type": "string"
        },
        {
          "internalType": "string",
          "name": "day",
          "type": "string"
        }
      ],
      "name": "Location_Add",
      "outputs": [],
      "stateMutability": "nonpayable",
      "type": "function"
    },
    {
      "inputs": [
        {
          "internalType": "uint256",
          "name": "index",
          "type": "uint256"
        }
      ],
      "name": "remove",
      "outputs": [],
      "stateMutability": "nonpayable",
      "type": "function"
    },
    {
      "inputs": [
        {
          "internalType": "uint256",
          "name": "id",
          "type": "uint256"
        },
        {
          "internalType": "string",
          "name": "long",
          "type": "string"
        },
        {
          "internalType": "string",
          "name": "lat",
          "type": "string"
        },
        {
          "internalType": "string",
          "name": "city",
          "type": "string"
        },
        {
          "internalType": "string",
          "name": "day",
          "type": "string"
        }
      ],
      "name": "Update_Resolve",
      "outputs": [],
      "stateMutability": "nonpayable",
      "type": "function"
    },
    {
      "inputs": [],
      "name": "Get_locations_Unresolved",
      "outputs": [
        {
          "components": [
            {
              "internalType": "uint256",
              "name": "id",
              "type": "uint256"
            },
            {
              "internalType": "string",
              "name": "longitude",
              "type": "string"
            },
            {
              "internalType": "string",
              "name": "latitude",
              "type": "string"
            },
            {
              "internalType": "string",
              "name": "city",
              "type": "string"
            },
            {
              "internalType": "string",
              "name": "day",
              "type": "string"
            }
          ],
          "internalType": "struct Trash.location_detail[]",
          "name": "",
          "type": "tuple[]"
        }
      ],
      "stateMutability": "view",
      "type": "function",
      "constant": true
    },
    {
      "inputs": [],
      "name": "Get_locations",
      "outputs": [
        {
          "components": [
            {
              "internalType": "uint256",
              "name": "id",
              "type": "uint256"
            },
            {
              "internalType": "string",
              "name": "longitude",
              "type": "string"
            },
            {
              "internalType": "string",
              "name": "latitude",
              "type": "string"
            },
            {
              "internalType": "string",
              "name": "city",
              "type": "string"
            },
            {
              "internalType": "string",
              "name": "day",
              "type": "string"
            }
          ],
          "internalType": "struct Trash.location_detail[]",
          "name": "",
          "type": "tuple[]"
        }
      ],
      "stateMutability": "view",
      "type": "function",
      "constant": true
    },
    {
      "inputs": [],
      "name": "Get_locations_resolved",
      "outputs": [
        {
          "components": [
            {
              "internalType": "uint256",
              "name": "id",
              "type": "uint256"
            },
            {
              "internalType": "string",
              "name": "longitude",
              "type": "string"
            },
            {
              "internalType": "string",
              "name": "latitude",
              "type": "string"
            },
            {
              "internalType": "string",
              "name": "city",
              "type": "string"
            },
            {
              "internalType": "string",
              "name": "day",
              "type": "string"
            }
          ],
          "internalType": "struct Trash.location_detail[]",
          "name": "",
          "type": "tuple[]"
        }
      ],
      "stateMutability": "view",
      "type": "function",
      "constant": true
    }
  ],
  "bytecode": "0x608060405234801561001057600080fd5b50611ec0806100206000396000f3fe608060405234801561001057600080fd5b506004361061007d5760003560e01c80634cc822151161005b5780634cc82215146100f05780636daa73bb1461010c5780638ee04f5114610128578063ce2932ae146101465761007d565b806306840bdf146100825780631974d6fe146100a057806346269ee5146100bc575b600080fd5b61008a610164565b6040516100979190611403565b60405180910390f35b6100ba60048036038101906100b5919061159a565b610415565b005b6100d660048036038101906100d191906116e3565b6106af565b6040516100e795949392919061177c565b60405180910390f35b61010a600480360381019061010591906117eb565b610922565b005b6101266004803603810190610121919061159a565b610ac1565b005b610130610c1f565b60405161013d9190611403565b60405180910390f35b61014e610ed0565b60405161015b9190611403565b60405180910390f35b60606001805480602002602001604051908101604052809291908181526020016000905b8282101561040c57838290600052602060002090600502016040518060a0016040529081600082015481526020016001820180546101c590611847565b80601f01602080910402602001604051908101604052809291908181526020018280546101f190611847565b801561023e5780601f106102135761010080835404028352916020019161023e565b820191906000526020600020905b81548152906001019060200180831161022157829003601f168201915b5050505050815260200160028201805461025790611847565b80601f016020809104026020016040519081016040528092919081815260200182805461028390611847565b80156102d05780601f106102a5576101008083540402835291602001916102d0565b820191906000526020600020905b8154815290600101906020018083116102b357829003601f168201915b505050505081526020016003820180546102e990611847565b80601f016020809104026020016040519081016040528092919081815260200182805461031590611847565b80156103625780601f1061033757610100808354040283529160200191610362565b820191906000526020600020905b81548152906001019060200180831161034557829003601f168201915b5050505050815260200160048201805461037b90611847565b80601f01602080910402602001604051908101604052809291908181526020018280546103a790611847565b80156103f45780601f106103c9576101008083540402835291602001916103f4565b820191906000526020600020905b8154815290600101906020018083116103d757829003601f168201915b50505050508152505081526020019060010190610188565b50505050905090565b60005b6001805490508110156106a757856001828154811061043a57610439611878565b5b9060005260206000209060050201600001541480156104c857508460405160200161046591906118e3565b604051602081830303815290604052805190602001206001828154811061048f5761048e611878565b5b90600052602060002090600502016001016040516020016104b09190611992565b60405160208183030381529060405280519060200120145b80156105435750836040516020016104e091906118e3565b604051602081830303815290604052805190602001206001828154811061050a57610509611878565b5b906000526020600020906005020160020160405160200161052b9190611992565b60405160208183030381529060405280519060200120145b80156105be57508260405160200161055b91906118e3565b604051602081830303815290604052805190602001206001828154811061058557610584611878565b5b90600052602060002090600502016003016040516020016105a69190611992565b60405160208183030381529060405280519060200120145b15610694576105cb611181565b8681600001818152505085816020018190525084816040018190525083816060018190525082816080018190525060028190806001815401808255809150506001900390600052602060002090600502016000909190919091506000820151816000015560208201518160010190816106449190611b40565b50604082015181600201908161065a9190611b40565b5060608201518160030190816106709190611b40565b5060808201518160040190816106869190611b40565b50505061069282610922565b505b808061069f90611c41565b915050610418565b505050505050565b600060205281600052604060002081815481106106cb57600080fd5b9060005260206000209060050201600091509150508060000154908060010180546106f590611847565b80601f016020809104026020016040519081016040528092919081815260200182805461072190611847565b801561076e5780601f106107435761010080835404028352916020019161076e565b820191906000526020600020905b81548152906001019060200180831161075157829003601f168201915b50505050509080600201805461078390611847565b80601f01602080910402602001604051908101604052809291908181526020018280546107af90611847565b80156107fc5780601f106107d1576101008083540402835291602001916107fc565b820191906000526020600020905b8154815290600101906020018083116107df57829003601f168201915b50505050509080600301805461081190611847565b80601f016020809104026020016040519081016040528092919081815260200182805461083d90611847565b801561088a5780601f1061085f5761010080835404028352916020019161088a565b820191906000526020600020905b81548152906001019060200180831161086d57829003601f168201915b50505050509080600401805461089f90611847565b80601f01602080910402602001604051908101604052809291908181526020018280546108cb90611847565b80156109185780601f106108ed57610100808354040283529160200191610918565b820191906000526020600020905b8154815290600101906020018083116108fb57829003601f168201915b5050505050905085565b6001805490508110610969576040517f08c379a000000000000000000000000000000000000000000000000000000000815260040161096090611cd5565b60405180910390fd5b60008190505b600180805490506109809190611cf5565b811015610a4a57600180826109959190611d29565b815481106109a6576109a5611878565b5b9060005260206000209060050201600182815481106109c8576109c7611878565b5b906000526020600020906005020160008201548160000155600182018160010190816109f49190611d73565b5060028201816002019081610a099190611d73565b5060038201816003019081610a1e9190611d73565b5060048201816004019081610a339190611d73565b509050508080610a4290611c41565b91505061096f565b506001805480610a5d57610a5c611e5b565b5b6001900381819060005260206000209060050201600080820160009055600182016000610a8a91906111b0565b600282016000610a9a91906111b0565b600382016000610aaa91906111b0565b600482016000610aba91906111b0565b5050905550565b610ac9611181565b858160000181815250508481602001819052508381604001819052508281606001819052508181608001819052506001819080600181540180825580915050600190039060005260206000209060050201600090919091909150600082015181600001556020820151816001019081610b429190611b40565b506040820151816002019081610b589190611b40565b506060820151816003019081610b6e9190611b40565b506080820151816004019081610b849190611b40565b5050506003819080600181540180825580915050600190039060005260206000209060050201600090919091909150600082015181600001556020820151816001019081610bd29190611b40565b506040820151816002019081610be89190611b40565b506060820151816003019081610bfe9190611b40565b506080820151816004019081610c149190611b40565b505050505050505050565b60606003805480602002602001604051908101604052809291908181526020016000905b82821015610ec757838290600052602060002090600502016040518060a001604052908160008201548152602001600182018054610c8090611847565b80601f0160208091040260200160405190810160405280929190818152602001828054610cac90611847565b8015610cf95780601f10610cce57610100808354040283529160200191610cf9565b820191906000526020600020905b815481529060010190602001808311610cdc57829003601f168201915b50505050508152602001600282018054610d1290611847565b80601f0160208091040260200160405190810160405280929190818152602001828054610d3e90611847565b8015610d8b5780601f10610d6057610100808354040283529160200191610d8b565b820191906000526020600020905b815481529060010190602001808311610d6e57829003601f168201915b50505050508152602001600382018054610da490611847565b80601f0160208091040260200160405190810160405280929190818152602001828054610dd090611847565b8015610e1d5780601f10610df257610100808354040283529160200191610e1d565b820191906000526020600020905b815481529060010190602001808311610e0057829003601f168201915b50505050508152602001600482018054610e3690611847565b80601f0160208091040260200160405190810160405280929190818152602001828054610e6290611847565b8015610eaf5780601f10610e8457610100808354040283529160200191610eaf565b820191906000526020600020905b815481529060010190602001808311610e9257829003601f168201915b50505050508152505081526020019060010190610c43565b50505050905090565b60606002805480602002602001604051908101604052809291908181526020016000905b8282101561117857838290600052602060002090600502016040518060a001604052908160008201548152602001600182018054610f3190611847565b80601f0160208091040260200160405190810160405280929190818152602001828054610f5d90611847565b8015610faa5780601f10610f7f57610100808354040283529160200191610faa565b820191906000526020600020905b815481529060010190602001808311610f8d57829003601f168201915b50505050508152602001600282018054610fc390611847565b80601f0160208091040260200160405190810160405280929190818152602001828054610fef90611847565b801561103c5780601f106110115761010080835404028352916020019161103c565b820191906000526020600020905b81548152906001019060200180831161101f57829003601f168201915b5050505050815260200160038201805461105590611847565b80601f016020809104026020016040519081016040528092919081815260200182805461108190611847565b80156110ce5780601f106110a3576101008083540402835291602001916110ce565b820191906000526020600020905b8154815290600101906020018083116110b157829003601f168201915b505050505081526020016004820180546110e790611847565b80601f016020809104026020016040519081016040528092919081815260200182805461111390611847565b80156111605780601f1061113557610100808354040283529160200191611160565b820191906000526020600020905b81548152906001019060200180831161114357829003601f168201915b50505050508152505081526020019060010190610ef4565b50505050905090565b6040518060a0016040528060008152602001606081526020016060815260200160608152602001606081525090565b5080546111bc90611847565b6000825580601f106111ce57506111ed565b601f0160209004906000526020600020908101906111ec91906111f0565b5b50565b5b808211156112095760008160009055506001016111f1565b5090565b600081519050919050565b600082825260208201905092915050565b6000819050602082019050919050565b6000819050919050565b61124c81611239565b82525050565b600081519050919050565b600082825260208201905092915050565b60005b8381101561128c578082015181840152602081019050611271565b60008484015250505050565b6000601f19601f8301169050919050565b60006112b482611252565b6112be818561125d565b93506112ce81856020860161126e565b6112d781611298565b840191505092915050565b600060a0830160008301516112fa6000860182611243565b506020830151848203602086015261131282826112a9565b9150506040830151848203604086015261132c82826112a9565b9150506060830151848203606086015261134682826112a9565b9150506080830151848203608086015261136082826112a9565b9150508091505092915050565b600061137983836112e2565b905092915050565b6000602082019050919050565b60006113998261120d565b6113a38185611218565b9350836020820285016113b585611229565b8060005b858110156113f157848403895281516113d2858261136d565b94506113dd83611381565b925060208a019950506001810190506113b9565b50829750879550505050505092915050565b6000602082019050818103600083015261141d818461138e565b905092915050565b6000604051905090565b600080fd5b600080fd5b61144281611239565b811461144d57600080fd5b50565b60008135905061145f81611439565b92915050565b600080fd5b600080fd5b7f4e487b7100000000000000000000000000000000000000000000000000000000600052604160045260246000fd5b6114a782611298565b810181811067ffffffffffffffff821117156114c6576114c561146f565b5b80604052505050565b60006114d9611425565b90506114e5828261149e565b919050565b600067ffffffffffffffff8211156115055761150461146f565b5b61150e82611298565b9050602081019050919050565b82818337600083830152505050565b600061153d611538846114ea565b6114cf565b9050828152602081018484840111156115595761155861146a565b5b61156484828561151b565b509392505050565b600082601f83011261158157611580611465565b5b813561159184826020860161152a565b91505092915050565b600080600080600060a086880312156115b6576115b561142f565b5b60006115c488828901611450565b955050602086013567ffffffffffffffff8111156115e5576115e4611434565b5b6115f18882890161156c565b945050604086013567ffffffffffffffff81111561161257611611611434565b5b61161e8882890161156c565b935050606086013567ffffffffffffffff81111561163f5761163e611434565b5b61164b8882890161156c565b925050608086013567ffffffffffffffff81111561166c5761166b611434565b5b6116788882890161156c565b9150509295509295909350565b600073ffffffffffffffffffffffffffffffffffffffff82169050919050565b60006116b082611685565b9050919050565b6116c0816116a5565b81146116cb57600080fd5b50565b6000813590506116dd816116b7565b92915050565b600080604083850312156116fa576116f961142f565b5b6000611708858286016116ce565b925050602061171985828601611450565b9150509250929050565b61172c81611239565b82525050565b600082825260208201905092915050565b600061174e82611252565b6117588185611732565b935061176881856020860161126e565b61177181611298565b840191505092915050565b600060a0820190506117916000830188611723565b81810360208301526117a38187611743565b905081810360408301526117b78186611743565b905081810360608301526117cb8185611743565b905081810360808301526117df8184611743565b90509695505050505050565b6000602082840312156118015761180061142f565b5b600061180f84828501611450565b91505092915050565b7f4e487b7100000000000000000000000000000000000000000000000000000000600052602260045260246000fd5b6000600282049050600182168061185f57607f821691505b60208210810361187257611871611818565b5b50919050565b7f4e487b7100000000000000000000000000000000000000000000000000000000600052603260045260246000fd5b600081905092915050565b60006118bd82611252565b6118c781856118a7565b93506118d781856020860161126e565b80840191505092915050565b60006118ef82846118b2565b915081905092915050565b60008190508160005260206000209050919050565b6000815461191c81611847565b61192681866118a7565b94506001821660008114611941576001811461195657611989565b60ff1983168652811515820286019350611989565b61195f856118fa565b60005b8381101561198157815481890152600182019150602081019050611962565b838801955050505b50505092915050565b600061199e828461190f565b915081905092915050565b60006020601f8301049050919050565b600082821b905092915050565b6000600883026119f67fffffffffffffffffffffffffffffffffffffffffffffffffffffffffffffffff826119b9565b611a0086836119b9565b95508019841693508086168417925050509392505050565b6000819050919050565b6000611a3d611a38611a3384611239565b611a18565b611239565b9050919050565b6000819050919050565b611a5783611a22565b611a6b611a6382611a44565b8484546119c6565b825550505050565b600090565b611a80611a73565b611a8b818484611a4e565b505050565b5b81811015611aaf57611aa4600082611a78565b600181019050611a91565b5050565b601f821115611af457611ac5816118fa565b611ace846119a9565b81016020851015611add578190505b611af1611ae9856119a9565b830182611a90565b50505b505050565b600082821c905092915050565b6000611b1760001984600802611af9565b1980831691505092915050565b6000611b308383611b06565b9150826002028217905092915050565b611b4982611252565b67ffffffffffffffff811115611b6257611b6161146f565b5b611b6c8254611847565b611b77828285611ab3565b600060209050601f831160018114611baa5760008415611b98578287015190505b611ba28582611b24565b865550611c0a565b601f198416611bb8866118fa565b60005b82811015611be057848901518255600182019150602085019450602081019050611bbb565b86831015611bfd5784890151611bf9601f891682611b06565b8355505b6001600288020188555050505b505050505050565b7f4e487b7100000000000000000000000000000000000000000000000000000000600052601160045260246000fd5b6000611c4c82611239565b91507fffffffffffffffffffffffffffffffffffffffffffffffffffffffffffffffff8203611c7e57611c7d611c12565b5b600182019050919050565b7f496e646578206f7574206f6620426f756e640000000000000000000000000000600082015250565b6000611cbf601283611732565b9150611cca82611c89565b602082019050919050565b60006020820190508181036000830152611cee81611cb2565b9050919050565b6000611d0082611239565b9150611d0b83611239565b9250828203905081811115611d2357611d22611c12565b5b92915050565b6000611d3482611239565b9150611d3f83611239565b9250828201905080821115611d5757611d56611c12565b5b92915050565b600081549050611d6c81611847565b9050919050565b818103611d81575050611e59565b611d8a82611d5d565b67ffffffffffffffff811115611da357611da261146f565b5b611dad8254611847565b611db8828285611ab3565b6000601f831160018114611de75760008415611dd5578287015490505b611ddf8582611b24565b865550611e52565b601f198416611df5876118fa565b9650611e00866118fa565b60005b82811015611e2857848901548255600182019150600185019450602081019050611e03565b86831015611e455784890154611e41601f891682611b06565b8355505b6001600288020188555050505b5050505050505b565b7f4e487b7100000000000000000000000000000000000000000000000000000000600052603160045260246000fdfea264697066735822122088a0af95422d097696a972b734353d9acbc04e5396d5ac26bce395cf3501fd6a64736f6c63430008110033",
  "immutableReferences": {},
  "source": "// SPDX-License-Identifier: MIT\r\npragma solidity >=0.4.22 <0.9.0;\r\n\r\ncontract Trash {\r\n    struct location_detail {\r\n        uint id;\r\n        string longitude;\r\n        string latitude;\r\n        string city;\r\n        string day;\r\n    }\r\n    mapping(address => location_detail[]) public Data;\r\n    location_detail[] all_loc_Unresolved;\r\n    location_detail[] all_loc_resolved;\r\n    location_detail[] all_loc;\r\n\r\n\r\n    function Location_Add(\r\n        uint id,\r\n        string memory longitude,\r\n        string memory latitude,\r\n        string memory city,\r\n        string memory day\r\n    ) external {\r\n        location_detail memory d;\r\n        d.id = id;\r\n        d.longitude = longitude;\r\n        d.latitude = latitude;\r\n        d.city = city;\r\n        d.day = day;\r\n        // Data[msg.sender].push(d);\r\n        all_loc_Unresolved.push(d);\r\n        all_loc.push(d);\r\n    }\r\n\r\n    function remove(uint256 index) public {\r\n        require(index < all_loc_Unresolved.length, \"Index out of Bound\");\r\n        for (uint256 i = index; i < all_loc_Unresolved.length - 1; i++) {\r\n            all_loc_Unresolved[i] = all_loc_Unresolved[i + 1];\r\n        }\r\n        all_loc_Unresolved.pop();\r\n    }\r\n\r\n    function Update_Resolve(\r\n        uint id,\r\n        string memory long,\r\n        string memory lat,\r\n        string memory city,\r\n        string memory day\r\n    ) public {\r\n        for (uint i = 0; i < all_loc_Unresolved.length; i++) {\r\n            if (\r\n                all_loc_Unresolved[i].id ==  id && \r\n                keccak256(abi.encodePacked((all_loc_Unresolved[i].longitude))) ==\r\n                keccak256(abi.encodePacked((long))) &&\r\n                keccak256(abi.encodePacked((all_loc_Unresolved[i].latitude))) ==\r\n                keccak256(abi.encodePacked((lat))) &&\r\n                keccak256(abi.encodePacked((all_loc_Unresolved[i].city))) ==\r\n                keccak256(abi.encodePacked((city)))\r\n            ) {\r\n                location_detail memory d;\r\n                d.id = id;\r\n                d.longitude = long;\r\n                d.latitude = lat;\r\n                d.city = city;\r\n                d.day = day;\r\n                all_loc_resolved.push(d);\r\n                remove(i);\r\n            }\r\n        }\r\n    }\r\n\r\n    function Get_locations_Unresolved() public view returns (location_detail[] memory) {\r\n        return all_loc_Unresolved;\r\n    }\r\n\r\n     function Get_locations() public view returns (location_detail[] memory) {\r\n        return all_loc;\r\n    }\r\n\r\n    function Get_locations_resolved() public view returns (location_detail[] memory) {\r\n        return all_loc_resolved;\r\n    }\r\n}\r\n",
  "sourcePath": "C:\\Users\\ahmed\\OneDrive\\Documents\\Trash_Detection_System\\Trash_Detection\\contracts\\Trash.sol",
  "compiler": {
    "name": "solc",
    "version": "0.8.17+commit.8df45f5f.Emscripten.clang"
  },
  "schemaVersion": "3.4.10",
  "updatedAt": "2023-01-09T04:11:08.836Z",
  "networkType": "ethereum",
  "devdoc": {
    "kind": "dev",
    "methods": {},
    "version": 1
  },
  "userdoc": {
    "kind": "user",
    "methods": {},
    "version": 1
  }
}